{
  "contractName": "ValidatorContract",
  "abi": [
    {
      "constant": true,
      "inputs": [
        {
          "name": "",
          "type": "uint256"
        }
      ],
      "name": "uploadObjectIdToData",
      "outputs": [
        {
          "name": "id",
          "type": "uint256"
        },
        {
          "name": "fileHash",
          "type": "string"
        },
        {
          "name": "alias1",
          "type": "string"
        },
        {
          "name": "alias2",
          "type": "string"
        },
        {
          "name": "policyId",
          "type": "string"
        },
        {
          "name": "capsule",
          "type": "string"
        },
        {
          "name": "signedPublicKey",
          "type": "string"
        },
        {
          "name": "alicePubKey",
          "type": "string"
        }
      ],
      "payable": false,
      "stateMutability": "view",
      "type": "function"
    },
    {
      "constant": true,
      "inputs": [
        {
          "name": "",
          "type": "address"
        },
        {
          "name": "",
          "type": "uint256"
        }
      ],
      "name": "userAddressToUploadObjectIds",
      "outputs": [
        {
          "name": "",
          "type": "uint256"
        }
      ],
      "payable": false,
      "stateMutability": "view",
      "type": "function"
    },
    {
      "constant": false,
      "inputs": [
        {
          "name": "_from",
          "type": "address"
        },
        {
          "name": "fileHash",
          "type": "string"
        },
        {
          "name": "alias1",
          "type": "string"
        },
        {
          "name": "alias2",
          "type": "string"
        },
        {
          "name": "policyId",
          "type": "string"
        },
        {
          "name": "capsule",
          "type": "string"
        },
        {
          "name": "signedPublicKey",
          "type": "string"
        },
        {
          "name": "alicePubKey",
          "type": "string"
        }
      ],
      "name": "addDocument",
      "outputs": [
        {
          "name": "",
          "type": "uint256"
        }
      ],
      "payable": false,
      "stateMutability": "nonpayable",
      "type": "function"
    },
    {
      "constant": true,
      "inputs": [
        {
          "name": "_address",
          "type": "address"
        }
      ],
      "name": "getDocumentIds",
      "outputs": [
        {
          "name": "",
          "type": "uint256[]"
        }
      ],
      "payable": false,
      "stateMutability": "view",
      "type": "function"
    },
    {
      "constant": true,
      "inputs": [
        {
          "name": "id",
          "type": "uint256"
        }
      ],
      "name": "getDocument",
      "outputs": [
        {
          "name": "",
          "type": "string"
        },
        {
          "name": "",
          "type": "string"
        },
        {
          "name": "",
          "type": "string"
        },
        {
          "name": "",
          "type": "string"
        },
        {
          "name": "",
          "type": "string"
        },
        {
          "name": "",
          "type": "string"
        },
        {
          "name": "",
          "type": "string"
        }
      ],
      "payable": false,
      "stateMutability": "view",
      "type": "function"
    },
    {
      "constant": true,
      "inputs": [],
      "name": "getCurrentId",
      "outputs": [
        {
          "name": "",
          "type": "uint256"
        }
      ],
      "payable": false,
      "stateMutability": "view",
      "type": "function"
    }
  ],
  "bytecode": "0x6080604052600160005534801561001557600080fd5b50611733806100256000396000f300608060405260043610610078576000357c0100000000000000000000000000000000000000000000000000000000900463ffffffff1680633f9b250a1461007d5780636c143862146103ab5780636d9b4a46146103d6578063759eb0bd1461046e578063a9b4a616146106af578063b75a5c60146109e4575b600080fd5b34801561008957600080fd5b506100a860048036038101908080359060200190929190505050610a45565b604051808060200180602001806020018060200180602001806020018060200188810388528f818151815260200191508051906020019080838360005b838110156101005780820151818401526020810190506100e5565b50505050905090810190601f16801561012d5780820380516001836020036101000a031916815260200191505b5088810387528e818151815260200191508051906020019080838360005b8381101561016657808201518184015260208101905061014b565b50505050905090810190601f1680156101935780820380516001836020036101000a031916815260200191505b5088810386528d818151815260200191508051906020019080838360005b838110156101cc5780820151818401526020810190506101b1565b50505050905090810190601f1680156101f95780820380516001836020036101000a031916815260200191505b5088810385528c818151815260200191508051906020019080838360005b83811015610232578082015181840152602081019050610217565b50505050905090810190601f16801561025f5780820380516001836020036101000a031916815260200191505b5088810384528b818151815260200191508051906020019080838360005b8381101561029857808201518184015260208101905061027d565b50505050905090810190601f1680156102c55780820380516001836020036101000a031916815260200191505b5088810383528a818151815260200191508051906020019080838360005b838110156102fe5780820151818401526020810190506102e3565b50505050905090810190601f16801561032b5780820380516001836020036101000a031916815260200191505b50888103825289818151815260200191508051906020019080838360005b83811015610364578082015181840152602081019050610349565b50505050905090810190601f1680156103915780820380516001836020036101000a031916815260200191505b509e50505050505050505050505050505060405180910390f35b3480156103b757600080fd5b506103c0610f47565b6040518082815260200191505060405180910390f35b3480156103e257600080fd5b50610417600480360381019080803573ffffffffffffffffffffffffffffffffffffffff169060200190929190505050610f50565b6040518080602001828103825283818151815260200191508051906020019060200280838360005b8381101561045a57808201518184015260208101905061043f565b505050509050019250505060405180910390f35b34801561047a57600080fd5b50610699600480360381019080803573ffffffffffffffffffffffffffffffffffffffff169060200190929190803590602001908201803590602001908080601f0160208091040260200160405190810160405280939291908181526020018383808284378201915050505050509192919290803590602001908201803590602001908080601f0160208091040260200160405190810160405280939291908181526020018383808284378201915050505050509192919290803590602001908201803590602001908080601f0160208091040260200160405190810160405280939291908181526020018383808284378201915050505050509192919290803590602001908201803590602001908080601f0160208091040260200160405190810160405280939291908181526020018383808284378201915050505050509192919290803590602001908201803590602001908080601f0160208091040260200160405190810160405280939291908181526020018383808284378201915050505050509192919290803590602001908201803590602001908080601f0160208091040260200160405190810160405280939291908181526020018383808284378201915050505050509192919290803590602001908201803590602001908080601f0160208091040260200160405190810160405280939291908181526020018383808284378201915050505050509192919290505050610fe7565b6040518082815260200191505060405180910390f35b3480156106bb57600080fd5b506106da600480360381019080803590602001909291905050506111c2565b604051808981526020018060200180602001806020018060200180602001806020018060200188810388528f818151815260200191508051906020019080838360005b8381101561073857808201518184015260208101905061071d565b50505050905090810190601f1680156107655780820380516001836020036101000a031916815260200191505b5088810387528e818151815260200191508051906020019080838360005b8381101561079e578082015181840152602081019050610783565b50505050905090810190601f1680156107cb5780820380516001836020036101000a031916815260200191505b5088810386528d818151815260200191508051906020019080838360005b838110156108045780820151818401526020810190506107e9565b50505050905090810190601f1680156108315780820380516001836020036101000a031916815260200191505b5088810385528c818151815260200191508051906020019080838360005b8381101561086a57808201518184015260208101905061084f565b50505050905090810190601f1680156108975780820380516001836020036101000a031916815260200191505b5088810384528b818151815260200191508051906020019080838360005b838110156108d05780820151818401526020810190506108b5565b50505050905090810190601f1680156108fd5780820380516001836020036101000a031916815260200191505b5088810383528a818151815260200191508051906020019080838360005b8381101561093657808201518184015260208101905061091b565b50505050905090810190601f1680156109635780820380516001836020036101000a031916815260200191505b50888103825289818151815260200191508051906020019080838360005b8381101561099c578082015181840152602081019050610981565b50505050905090810190601f1680156109c95780820380516001836020036101000a031916815260200191505b509f5050505050505050505050505050505060405180910390f35b3480156109f057600080fd5b50610a2f600480360381019080803573ffffffffffffffffffffffffffffffffffffffff16906020019092919080359060200190929190505050611632565b6040518082815260200191505060405180910390f35b606080606080606080606060026000898152602001908152602001600020600101600260008a8152602001908152602001600020600201600260008b8152602001908152602001600020600301600260008c8152602001908152602001600020600401600260008d8152602001908152602001600020600501600260008e8152602001908152602001600020600601600260008f8152602001908152602001600020600701868054600181600116156101000203166002900480601f016020809104026020016040519081016040528092919081815260200182805460018160011615610100020316600290048015610b7f5780601f10610b5457610100808354040283529160200191610b7f565b820191906000526020600020905b815481529060010190602001808311610b6257829003601f168201915b50505050509650858054600181600116156101000203166002900480601f016020809104026020016040519081016040528092919081815260200182805460018160011615610100020316600290048015610c1b5780601f10610bf057610100808354040283529160200191610c1b565b820191906000526020600020905b815481529060010190602001808311610bfe57829003601f168201915b50505050509550848054600181600116156101000203166002900480601f016020809104026020016040519081016040528092919081815260200182805460018160011615610100020316600290048015610cb75780601f10610c8c57610100808354040283529160200191610cb7565b820191906000526020600020905b815481529060010190602001808311610c9a57829003601f168201915b50505050509450838054600181600116156101000203166002900480601f016020809104026020016040519081016040528092919081815260200182805460018160011615610100020316600290048015610d535780601f10610d2857610100808354040283529160200191610d53565b820191906000526020600020905b815481529060010190602001808311610d3657829003601f168201915b50505050509350828054600181600116156101000203166002900480601f016020809104026020016040519081016040528092919081815260200182805460018160011615610100020316600290048015610def5780601f10610dc457610100808354040283529160200191610def565b820191906000526020600020905b815481529060010190602001808311610dd257829003601f168201915b50505050509250818054600181600116156101000203166002900480601f016020809104026020016040519081016040528092919081815260200182805460018160011615610100020316600290048015610e8b5780601f10610e6057610100808354040283529160200191610e8b565b820191906000526020600020905b815481529060010190602001808311610e6e57829003601f168201915b50505050509150808054600181600116156101000203166002900480601f016020809104026020016040519081016040528092919081815260200182805460018160011615610100020316600290048015610f275780601f10610efc57610100808354040283529160200191610f27565b820191906000526020600020905b815481529060010190602001808311610f0a57829003601f168201915b505050505090509650965096509650965096509650919395979092949650565b60008054905090565b6060600160008373ffffffffffffffffffffffffffffffffffffffff1673ffffffffffffffffffffffffffffffffffffffff168152602001908152602001600020805480602002602001604051908101604052809291908181526020018280548015610fdb57602002820191906000526020600020905b815481526020019060010190808311610fc7575b50505050509050919050565b600080546002600080548152602001908152602001600020600001819055508760026000805481526020019081526020016000206001019080519060200190611031929190611662565b50866002600080548152602001908152602001600020600201908051906020019061105d929190611662565b508560026000805481526020019081526020016000206003019080519060200190611089929190611662565b5084600260008054815260200190815260200160002060040190805190602001906110b5929190611662565b5083600260008054815260200190815260200160002060050190805190602001906110e1929190611662565b50826002600080548152602001908152602001600020600601908051906020019061110d929190611662565b508160026000805481526020019081526020016000206007019080519060200190611139929190611662565b50600160008a73ffffffffffffffffffffffffffffffffffffffff1673ffffffffffffffffffffffffffffffffffffffff1681526020019081526020016000206000549080600181540180825580915050906001820390600052602060002001600090919290919091505550600160005401600081905550600054905098975050505050505050565b6002602052806000526040600020600091509050806000015490806001018054600181600116156101000203166002900480601f0160208091040260200160405190810160405280929190818152602001828054600181600116156101000203166002900480156112745780601f1061124957610100808354040283529160200191611274565b820191906000526020600020905b81548152906001019060200180831161125757829003601f168201915b505050505090806002018054600181600116156101000203166002900480601f0160208091040260200160405190810160405280929190818152602001828054600181600116156101000203166002900480156113125780601f106112e757610100808354040283529160200191611312565b820191906000526020600020905b8154815290600101906020018083116112f557829003601f168201915b505050505090806003018054600181600116156101000203166002900480601f0160208091040260200160405190810160405280929190818152602001828054600181600116156101000203166002900480156113b05780601f10611385576101008083540402835291602001916113b0565b820191906000526020600020905b81548152906001019060200180831161139357829003601f168201915b505050505090806004018054600181600116156101000203166002900480601f01602080910402602001604051908101604052809291908181526020018280546001816001161561010002031660029004801561144e5780601f106114235761010080835404028352916020019161144e565b820191906000526020600020905b81548152906001019060200180831161143157829003601f168201915b505050505090806005018054600181600116156101000203166002900480601f0160208091040260200160405190810160405280929190818152602001828054600181600116156101000203166002900480156114ec5780601f106114c1576101008083540402835291602001916114ec565b820191906000526020600020905b8154815290600101906020018083116114cf57829003601f168201915b505050505090806006018054600181600116156101000203166002900480601f01602080910402602001604051908101604052809291908181526020018280546001816001161561010002031660029004801561158a5780601f1061155f5761010080835404028352916020019161158a565b820191906000526020600020905b81548152906001019060200180831161156d57829003601f168201915b505050505090806007018054600181600116156101000203166002900480601f0160208091040260200160405190810160405280929190818152602001828054600181600116156101000203166002900480156116285780601f106115fd57610100808354040283529160200191611628565b820191906000526020600020905b81548152906001019060200180831161160b57829003601f168201915b5050505050905088565b60016020528160005260406000208181548110151561164d57fe5b90600052602060002001600091509150505481565b828054600181600116156101000203166002900490600052602060002090601f016020900481019282601f106116a357805160ff19168380011785556116d1565b828001600101855582156116d1579182015b828111156116d05782518255916020019190600101906116b5565b5b5090506116de91906116e2565b5090565b61170491905b808211156117005760008160009055506001016116e8565b5090565b905600a165627a7a723058208b7b4dde4e5cd88c834698bd9581f64dae046cb97006bf28535520b63bd951800029",
  "source": "pragma solidity ^0.4.17;\n\ncontract ValidatorContract {\n\n\t// current item id increments on every upload object\n\tuint currentId = 1;\n\tstruct UploadObject {\n\t\tuint id;\n\n\t\tstring fileHash;\n\t\tstring alias1;\n\t\tstring alias2;\n\t\tstring policyId;\n\t\tstring capsule;\n\t\tstring signedPublicKey;\n\t\tstring alicePubKey;\n\t}\n\n\t//user will have multiple upload items\n\tmapping (address => uint[]) public userAddressToUploadObjectIds;\n\n\t// each item will have a user\n\tmapping (uint => UploadObject) public uploadObjectIdToData;\n\n\t// add new entry\n\tfunction addDocument(address _from, string fileHash, string alias1, string alias2, string policyId, string capsule, string signedPublicKey, string alicePubKey) public returns(uint) {\n\t\t// UploadObject memory uploadObjectIdToData[id] = UploadObject({\n\t\t// \tid: currentId,\n\t\t// \tfileHash: fileHash,\n\t\t// \talias1: alias1,\n\t\t// \talias2: alias2,\n\t\t// \tpolicyId: policyId,\n\t\t// \tcapsule: capsule,\n\t\t// \tsignedPublicKey: signedPublicKey,\n\t\t// \talicePubKey: alicePubKey\n\t\t// });\n\n\t\tuploadObjectIdToData[currentId].id = currentId;\n\t\tuploadObjectIdToData[currentId].fileHash = fileHash;\n\t\tuploadObjectIdToData[currentId].alias1 = alias1;\n\t\tuploadObjectIdToData[currentId].alias2 = alias2;\n\t\tuploadObjectIdToData[currentId].policyId = policyId;\n\t\tuploadObjectIdToData[currentId].capsule = capsule;\n\t\tuploadObjectIdToData[currentId].signedPublicKey = signedPublicKey;\n\t\tuploadObjectIdToData[currentId].alicePubKey = alicePubKey;\n\n\t\t// now settle relationships\n\t\tuserAddressToUploadObjectIds[_from].push(currentId);\n\n\t\tcurrentId = currentId + 1;\n\t\treturn currentId;\n\t}\n\n\t// get existing documents\n\tfunction getDocumentIds(address _address) public constant returns(uint[]) {\n\t\treturn userAddressToUploadObjectIds[_address];\n\t}\n\n\t// get document data from document id\n\tfunction getDocument(uint id) public constant returns(string, string, string, string, string, string, string) {\n\t\t\treturn (uploadObjectIdToData[id].fileHash, uploadObjectIdToData[id].alias1, uploadObjectIdToData[id].alias2, \n\t\t\t\tuploadObjectIdToData[id].policyId, uploadObjectIdToData[id].capsule, uploadObjectIdToData[id].signedPublicKey, uploadObjectIdToData[id].alicePubKey);\n\t}\n\n\tfunction getCurrentId() public constant returns(uint) {\n\t\treturn currentId;\n\t}\n}",
  "sourcePath": "/home/mcd-50/Documents/data/truffle/contracts/ValidatorContract.sol",
  "compiler": {
    "name": "solc",
    "version": "0.4.24+commit.e67f0147.Emscripten.clang"
  },
  "schemaVersion": "2.0.1",
  "updatedAt": "2018-08-11T19:58:52.726Z"
}